{
  "_format": "hh-sol-artifact-1",
  "contractName": "LendingPool",
  "sourceName": "contracts/LendingPool.sol",
  "abi": [
    {
      "inputs": [
        {
          "internalType": "contract IERC20",
          "name": "_asset",
          "type": "address"
        },
        {
          "internalType": "contract IERC20",
          "name": "_collateralToken",
          "type": "address"
        }
      ],
      "stateMutability": "nonpayable",
      "type": "constructor"
    },
    {
      "anonymous": false,
      "inputs": [
        {
          "indexed": true,
          "internalType": "address",
          "name": "borrower",
          "type": "address"
        },
        {
          "indexed": false,
          "internalType": "uint256",
          "name": "loanId",
          "type": "uint256"
        },
        {
          "indexed": false,
          "internalType": "uint256",
          "name": "collateralAmount",
          "type": "uint256"
        },
        {
          "indexed": false,
          "internalType": "uint256",
          "name": "amount",
          "type": "uint256"
        }
      ],
      "name": "Borrow",
      "type": "event"
    },
    {
      "anonymous": false,
      "inputs": [
        {
          "indexed": true,
          "internalType": "address",
          "name": "from",
          "type": "address"
        },
        {
          "indexed": false,
          "internalType": "uint256",
          "name": "amount",
          "type": "uint256"
        }
      ],
      "name": "Deposit",
      "type": "event"
    },
    {
      "anonymous": false,
      "inputs": [
        {
          "indexed": true,
          "internalType": "address",
          "name": "liquidator",
          "type": "address"
        },
        {
          "indexed": false,
          "internalType": "uint256",
          "name": "loanId",
          "type": "uint256"
        },
        {
          "indexed": false,
          "internalType": "uint256",
          "name": "repaid",
          "type": "uint256"
        },
        {
          "indexed": false,
          "internalType": "uint256",
          "name": "collateralSeized",
          "type": "uint256"
        }
      ],
      "name": "Liquidate",
      "type": "event"
    },
    {
      "anonymous": false,
      "inputs": [
        {
          "indexed": true,
          "internalType": "address",
          "name": "previousOwner",
          "type": "address"
        },
        {
          "indexed": true,
          "internalType": "address",
          "name": "newOwner",
          "type": "address"
        }
      ],
      "name": "OwnershipTransferred",
      "type": "event"
    },
    {
      "anonymous": false,
      "inputs": [
        {
          "indexed": true,
          "internalType": "address",
          "name": "borrower",
          "type": "address"
        },
        {
          "indexed": false,
          "internalType": "uint256",
          "name": "loanId",
          "type": "uint256"
        },
        {
          "indexed": false,
          "internalType": "uint256",
          "name": "amount",
          "type": "uint256"
        },
        {
          "indexed": false,
          "internalType": "bool",
          "name": "closed",
          "type": "bool"
        }
      ],
      "name": "Repay",
      "type": "event"
    },
    {
      "anonymous": false,
      "inputs": [
        {
          "indexed": true,
          "internalType": "address",
          "name": "to",
          "type": "address"
        },
        {
          "indexed": false,
          "internalType": "uint256",
          "name": "amount",
          "type": "uint256"
        }
      ],
      "name": "Withdraw",
      "type": "event"
    },
    {
      "inputs": [],
      "name": "asset",
      "outputs": [
        {
          "internalType": "contract IERC20",
          "name": "",
          "type": "address"
        }
      ],
      "stateMutability": "view",
      "type": "function"
    },
    {
      "inputs": [],
      "name": "assetPrice",
      "outputs": [
        {
          "internalType": "uint256",
          "name": "",
          "type": "uint256"
        }
      ],
      "stateMutability": "view",
      "type": "function"
    },
    {
      "inputs": [
        {
          "internalType": "uint256",
          "name": "collateralAmount",
          "type": "uint256"
        },
        {
          "internalType": "uint256",
          "name": "borrowAmount",
          "type": "uint256"
        }
      ],
      "name": "borrow",
      "outputs": [
        {
          "internalType": "uint256",
          "name": "",
          "type": "uint256"
        }
      ],
      "stateMutability": "nonpayable",
      "type": "function"
    },
    {
      "inputs": [],
      "name": "collateralPrice",
      "outputs": [
        {
          "internalType": "uint256",
          "name": "",
          "type": "uint256"
        }
      ],
      "stateMutability": "view",
      "type": "function"
    },
    {
      "inputs": [],
      "name": "collateralToken",
      "outputs": [
        {
          "internalType": "contract IERC20",
          "name": "",
          "type": "address"
        }
      ],
      "stateMutability": "view",
      "type": "function"
    },
    {
      "inputs": [
        {
          "internalType": "uint256",
          "name": "amount",
          "type": "uint256"
        }
      ],
      "name": "deposit",
      "outputs": [],
      "stateMutability": "nonpayable",
      "type": "function"
    },
    {
      "inputs": [
        {
          "internalType": "uint256",
          "name": "loanId",
          "type": "uint256"
        }
      ],
      "name": "liquidate",
      "outputs": [],
      "stateMutability": "nonpayable",
      "type": "function"
    },
    {
      "inputs": [
        {
          "internalType": "uint256",
          "name": "",
          "type": "uint256"
        }
      ],
      "name": "loans",
      "outputs": [
        {
          "internalType": "address",
          "name": "borrower",
          "type": "address"
        },
        {
          "internalType": "uint256",
          "name": "collateralAmount",
          "type": "uint256"
        },
        {
          "internalType": "uint256",
          "name": "debt",
          "type": "uint256"
        },
        {
          "internalType": "bool",
          "name": "open",
          "type": "bool"
        }
      ],
      "stateMutability": "view",
      "type": "function"
    },
    {
      "inputs": [],
      "name": "ltv",
      "outputs": [
        {
          "internalType": "uint256",
          "name": "",
          "type": "uint256"
        }
      ],
      "stateMutability": "view",
      "type": "function"
    },
    {
      "inputs": [],
      "name": "nextLoanId",
      "outputs": [
        {
          "internalType": "uint256",
          "name": "",
          "type": "uint256"
        }
      ],
      "stateMutability": "view",
      "type": "function"
    },
    {
      "inputs": [],
      "name": "owner",
      "outputs": [
        {
          "internalType": "address",
          "name": "",
          "type": "address"
        }
      ],
      "stateMutability": "view",
      "type": "function"
    },
    {
      "inputs": [],
      "name": "renounceOwnership",
      "outputs": [],
      "stateMutability": "nonpayable",
      "type": "function"
    },
    {
      "inputs": [
        {
          "internalType": "uint256",
          "name": "loanId",
          "type": "uint256"
        },
        {
          "internalType": "uint256",
          "name": "amount",
          "type": "uint256"
        }
      ],
      "name": "repay",
      "outputs": [],
      "stateMutability": "nonpayable",
      "type": "function"
    },
    {
      "inputs": [
        {
          "internalType": "uint256",
          "name": "_ltv",
          "type": "uint256"
        }
      ],
      "name": "setLTV",
      "outputs": [],
      "stateMutability": "nonpayable",
      "type": "function"
    },
    {
      "inputs": [
        {
          "internalType": "uint256",
          "name": "_assetPrice",
          "type": "uint256"
        },
        {
          "internalType": "uint256",
          "name": "_collateralPrice",
          "type": "uint256"
        }
      ],
      "name": "setPrices",
      "outputs": [],
      "stateMutability": "nonpayable",
      "type": "function"
    },
    {
      "inputs": [],
      "name": "totalLiquidity",
      "outputs": [
        {
          "internalType": "uint256",
          "name": "",
          "type": "uint256"
        }
      ],
      "stateMutability": "view",
      "type": "function"
    },
    {
      "inputs": [
        {
          "internalType": "address",
          "name": "newOwner",
          "type": "address"
        }
      ],
      "name": "transferOwnership",
      "outputs": [],
      "stateMutability": "nonpayable",
      "type": "function"
    },
    {
      "inputs": [
        {
          "internalType": "uint256",
          "name": "amount",
          "type": "uint256"
        }
      ],
      "name": "withdraw",
      "outputs": [],
      "stateMutability": "nonpayable",
      "type": "function"
    }
  ],
  "bytecode": "0x6080604052670de0b6b3a7640000600455670de0b6b3a76400006005556706f05b59d3b2000060065560016008553480156200003a57600080fd5b50604051620025ed380380620025ed83398181016040528101906200006091906200025b565b62000080620000746200011160201b60201c565b6200011960201b60201c565b6001808190555081600260006101000a81548173ffffffffffffffffffffffffffffffffffffffff021916908373ffffffffffffffffffffffffffffffffffffffff16021790555080600360006101000a81548173ffffffffffffffffffffffffffffffffffffffff021916908373ffffffffffffffffffffffffffffffffffffffff1602179055505050620002a2565b600033905090565b60008060009054906101000a900473ffffffffffffffffffffffffffffffffffffffff169050816000806101000a81548173ffffffffffffffffffffffffffffffffffffffff021916908373ffffffffffffffffffffffffffffffffffffffff1602179055508173ffffffffffffffffffffffffffffffffffffffff168173ffffffffffffffffffffffffffffffffffffffff167f8be0079c531659141344cd1fd0a4f28419497f9722a3daafe3b4186f6b6457e060405160405180910390a35050565b600080fd5b600073ffffffffffffffffffffffffffffffffffffffff82169050919050565b60006200020f82620001e2565b9050919050565b6000620002238262000202565b9050919050565b620002358162000216565b81146200024157600080fd5b50565b60008151905062000255816200022a565b92915050565b60008060408385031215620002755762000274620001dd565b5b6000620002858582860162000244565b9250506020620002988582860162000244565b9150509250929050565b61233b80620002b26000396000f3fe608060405234801561001057600080fd5b50600436106101165760003560e01c806387c51459116100a2578063b6b55f2511610071578063b6b55f2514610297578063d24378eb146102b3578063d8aed145146102d1578063e1ec3c68146102ed578063f2fde38b1461032057610116565b806387c51459146102215780638da5cb5b1461023f578063b13de2661461025d578063b2016bd41461027957610116565b806338d52e0f116100e957806338d52e0f146101a1578063415f1240146101bf5780635891de72146101db5780636fb49d73146101f9578063715018a61461021757610116565b806305fefda71461011b5780630ecbcdab1461013757806315770f92146101675780632e1a7d4d14610185575b600080fd5b610135600480360381019061013091906115f5565b61033c565b005b610151600480360381019061014c91906115f5565b6103a5565b60405161015e9190611644565b60405180910390f35b61016f6106d1565b60405161017c9190611644565b60405180910390f35b61019f600480360381019061019a919061165f565b6106d7565b005b6101a96107eb565b6040516101b6919061170b565b60405180910390f35b6101d960048036038101906101d4919061165f565b610811565b005b6101e3610a65565b6040516101f09190611644565b60405180910390f35b610201610a6b565b60405161020e9190611644565b60405180910390f35b61021f610a71565b005b610229610a85565b6040516102369190611644565b60405180910390f35b610247610a8b565b6040516102549190611747565b60405180910390f35b6102776004803603810190610272919061165f565b610ab4565b005b610281610b11565b60405161028e919061170b565b60405180910390f35b6102b160048036038101906102ac919061165f565b610b37565b005b6102bb610c43565b6040516102c89190611644565b60405180910390f35b6102eb60048036038101906102e691906115f5565b610c49565b005b6103076004803603810190610302919061165f565b610f94565b604051610317949392919061177d565b60405180910390f35b61033a600480360381019061033591906117ee565b610ff1565b005b610344611074565b6000821180156103545750600081115b610393576040517f08c379a000000000000000000000000000000000000000000000000000000000815260040161038a90611878565b60405180910390fd5b81600481905550806005819055505050565b60006103af6110f2565b6000831180156103bf5750600082115b6103fe576040517f08c379a00000000000000000000000000000000000000000000000000000000081526004016103f5906118e4565b60405180910390fd5b61044d333085600360009054906101000a900473ffffffffffffffffffffffffffffffffffffffff1673ffffffffffffffffffffffffffffffffffffffff16611141909392919063ffffffff16565b6000670de0b6b3a7640000600554856104669190611933565b61047091906119a4565b90506000670de0b6b3a76400006006548361048b9190611933565b61049591906119a4565b9050808411156104da576040517f08c379a00000000000000000000000000000000000000000000000000000000081526004016104d190611a21565b60405180910390fd5b60075484111561051f576040517f08c379a000000000000000000000000000000000000000000000000000000000815260040161051690611a8d565b60405180910390fd5b60006008600081548092919061053490611aad565b91905055905060405180608001604052803373ffffffffffffffffffffffffffffffffffffffff168152602001878152602001868152602001600115158152506009600083815260200190815260200160002060008201518160000160006101000a81548173ffffffffffffffffffffffffffffffffffffffff021916908373ffffffffffffffffffffffffffffffffffffffff160217905550602082015181600101556040820151816002015560608201518160030160006101000a81548160ff02191690831515021790555090505084600760008282546106179190611af5565b9250508190555061066b3386600260009054906101000a900473ffffffffffffffffffffffffffffffffffffffff1673ffffffffffffffffffffffffffffffffffffffff166111ca9092919063ffffffff16565b3373ffffffffffffffffffffffffffffffffffffffff167f13ed6866d4e1ee6da46f845c46d7e54120883d75c5ea9a2dacc1c4ca8984ab808288886040516106b593929190611b29565b60405180910390a28093505050506106cb611250565b92915050565b60075481565b6106df6110f2565b6106e7611074565b60075481111561072c576040517f08c379a000000000000000000000000000000000000000000000000000000000815260040161072390611bac565b60405180910390fd5b806007600082825461073e9190611af5565b925050819055506107923382600260009054906101000a900473ffffffffffffffffffffffffffffffffffffffff1673ffffffffffffffffffffffffffffffffffffffff166111ca9092919063ffffffff16565b3373ffffffffffffffffffffffffffffffffffffffff167f884edad9ce6fa2440d8a54cc123490eb96d2768479d49ff9c7366125a9424364826040516107d89190611644565b60405180910390a26107e8611250565b50565b600260009054906101000a900473ffffffffffffffffffffffffffffffffffffffff1681565b6108196110f2565b60006009600083815260200190815260200160002090508060030160009054906101000a900460ff16610881576040517f08c379a000000000000000000000000000000000000000000000000000000000815260040161087890611c18565b60405180910390fd5b6000670de0b6b3a7640000600554836001015461089e9190611933565b6108a891906119a4565b90506000670de0b6b3a7640000600654836108c39190611933565b6108cd91906119a4565b905080836002015411610915576040517f08c379a000000000000000000000000000000000000000000000000000000000815260040161090c90611c84565b60405180910390fd5b60008360020154905061096d333083600260009054906101000a900473ffffffffffffffffffffffffffffffffffffffff1673ffffffffffffffffffffffffffffffffffffffff16611141909392919063ffffffff16565b806007600082825461097f9190611ca4565b9250508190555060008460010154905060008560030160006101000a81548160ff02191690831515021790555060008560020181905550610a033382600360009054906101000a900473ffffffffffffffffffffffffffffffffffffffff1673ffffffffffffffffffffffffffffffffffffffff166111ca9092919063ffffffff16565b3373ffffffffffffffffffffffffffffffffffffffff167f158ba9ab7bbbd08eeffa4753bad41f4d450e24831d293427308badf3eadd8c76878484604051610a4d93929190611b29565b60405180910390a25050505050610a62611250565b50565b60055481565b60065481565b610a79611074565b610a836000611259565b565b60085481565b60008060009054906101000a900473ffffffffffffffffffffffffffffffffffffffff16905090565b610abc611074565b670de0b6b3a7640000811115610b07576040517f08c379a0000000000000000000000000000000000000000000000000000000008152600401610afe90611d24565b60405180910390fd5b8060068190555050565b600360009054906101000a900473ffffffffffffffffffffffffffffffffffffffff1681565b610b3f6110f2565b60008111610b82576040517f08c379a0000000000000000000000000000000000000000000000000000000008152600401610b7990611d90565b60405180910390fd5b610bd1333083600260009054906101000a900473ffffffffffffffffffffffffffffffffffffffff1673ffffffffffffffffffffffffffffffffffffffff16611141909392919063ffffffff16565b8060076000828254610be39190611ca4565b925050819055503373ffffffffffffffffffffffffffffffffffffffff167fe1fffcc4923d04b559f4d29a8bfc6cda04eb5b0d3c460751c2402c5c5cc9109c82604051610c309190611644565b60405180910390a2610c40611250565b50565b60045481565b610c516110f2565b60006009600084815260200190815260200160002090508060030160009054906101000a900460ff16610cb9576040517f08c379a0000000000000000000000000000000000000000000000000000000008152600401610cb090611c18565b60405180910390fd5b60008211610cfc576040517f08c379a0000000000000000000000000000000000000000000000000000000008152600401610cf390611d90565b60405180910390fd5b8060000160009054906101000a900473ffffffffffffffffffffffffffffffffffffffff1673ffffffffffffffffffffffffffffffffffffffff163373ffffffffffffffffffffffffffffffffffffffff1614610d8e576040517f08c379a0000000000000000000000000000000000000000000000000000000008152600401610d8590611dfc565b60405180910390fd5b610ddd333084600260009054906101000a900473ffffffffffffffffffffffffffffffffffffffff1673ffffffffffffffffffffffffffffffffffffffff16611141909392919063ffffffff16565b80600201548210610eff576000816002015490506000826002018190555060008260030160006101000a81548160ff0219169083151502179055508060076000828254610e2a9190611ca4565b92505081905550610ea68260000160009054906101000a900473ffffffffffffffffffffffffffffffffffffffff168360010154600360009054906101000a900473ffffffffffffffffffffffffffffffffffffffff1673ffffffffffffffffffffffffffffffffffffffff166111ca9092919063ffffffff16565b3373ffffffffffffffffffffffffffffffffffffffff167ff90b9b76c9e29a665a3c7552c18a9b0179ebc080e81b4ece21a69b693eb3d5c585836001604051610ef193929190611e1c565b60405180910390a250610f87565b81816002016000828254610f139190611af5565b925050819055508160076000828254610f2c9190611ca4565b925050819055503373ffffffffffffffffffffffffffffffffffffffff167ff90b9b76c9e29a665a3c7552c18a9b0179ebc080e81b4ece21a69b693eb3d5c584846000604051610f7e93929190611e1c565b60405180910390a25b50610f90611250565b5050565b60096020528060005260406000206000915090508060000160009054906101000a900473ffffffffffffffffffffffffffffffffffffffff16908060010154908060020154908060030160009054906101000a900460ff16905084565b610ff9611074565b600073ffffffffffffffffffffffffffffffffffffffff168173ffffffffffffffffffffffffffffffffffffffff1603611068576040517f08c379a000000000000000000000000000000000000000000000000000000000815260040161105f90611ec5565b60405180910390fd5b61107181611259565b50565b61107c61131d565b73ffffffffffffffffffffffffffffffffffffffff1661109a610a8b565b73ffffffffffffffffffffffffffffffffffffffff16146110f0576040517f08c379a00000000000000000000000000000000000000000000000000000000081526004016110e790611f31565b60405180910390fd5b565b600260015403611137576040517f08c379a000000000000000000000000000000000000000000000000000000000815260040161112e90611f9d565b60405180910390fd5b6002600181905550565b6111c4846323b872dd60e01b85858560405160240161116293929190611fbd565b604051602081830303815290604052907bffffffffffffffffffffffffffffffffffffffffffffffffffffffff19166020820180517bffffffffffffffffffffffffffffffffffffffffffffffffffffffff8381831617835250505050611325565b50505050565b61124b8363a9059cbb60e01b84846040516024016111e9929190611ff4565b604051602081830303815290604052907bffffffffffffffffffffffffffffffffffffffffffffffffffffffff19166020820180517bffffffffffffffffffffffffffffffffffffffffffffffffffffffff8381831617835250505050611325565b505050565b60018081905550565b60008060009054906101000a900473ffffffffffffffffffffffffffffffffffffffff169050816000806101000a81548173ffffffffffffffffffffffffffffffffffffffff021916908373ffffffffffffffffffffffffffffffffffffffff1602179055508173ffffffffffffffffffffffffffffffffffffffff168173ffffffffffffffffffffffffffffffffffffffff167f8be0079c531659141344cd1fd0a4f28419497f9722a3daafe3b4186f6b6457e060405160405180910390a35050565b600033905090565b6000611387826040518060400160405280602081526020017f5361666545524332303a206c6f772d6c6576656c2063616c6c206661696c65648152508573ffffffffffffffffffffffffffffffffffffffff166113ed9092919063ffffffff16565b90506000815114806113a95750808060200190518101906113a89190612049565b5b6113e8576040517f08c379a00000000000000000000000000000000000000000000000000000000081526004016113df906120e8565b60405180910390fd5b505050565b60606113fc8484600085611405565b90509392505050565b60608247101561144a576040517f08c379a00000000000000000000000000000000000000000000000000000000081526004016114419061217a565b60405180910390fd5b6000808673ffffffffffffffffffffffffffffffffffffffff168587604051611473919061220b565b60006040518083038185875af1925050503d80600081146114b0576040519150601f19603f3d011682016040523d82523d6000602084013e6114b5565b606091505b50915091506114c6878383876114d2565b92505050949350505050565b6060831561153457600083510361152c576114ec85611547565b61152b576040517f08c379a00000000000000000000000000000000000000000000000000000000081526004016115229061226e565b60405180910390fd5b5b82905061153f565b61153e838361156a565b5b949350505050565b6000808273ffffffffffffffffffffffffffffffffffffffff163b119050919050565b60008251111561157d5781518083602001fd5b806040517f08c379a00000000000000000000000000000000000000000000000000000000081526004016115b191906122e3565b60405180910390fd5b600080fd5b6000819050919050565b6115d2816115bf565b81146115dd57600080fd5b50565b6000813590506115ef816115c9565b92915050565b6000806040838503121561160c5761160b6115ba565b5b600061161a858286016115e0565b925050602061162b858286016115e0565b9150509250929050565b61163e816115bf565b82525050565b60006020820190506116596000830184611635565b92915050565b600060208284031215611675576116746115ba565b5b6000611683848285016115e0565b91505092915050565b600073ffffffffffffffffffffffffffffffffffffffff82169050919050565b6000819050919050565b60006116d16116cc6116c78461168c565b6116ac565b61168c565b9050919050565b60006116e3826116b6565b9050919050565b60006116f5826116d8565b9050919050565b611705816116ea565b82525050565b600060208201905061172060008301846116fc565b92915050565b60006117318261168c565b9050919050565b61174181611726565b82525050565b600060208201905061175c6000830184611738565b92915050565b60008115159050919050565b61177781611762565b82525050565b60006080820190506117926000830187611738565b61179f6020830186611635565b6117ac6040830185611635565b6117b9606083018461176e565b95945050505050565b6117cb81611726565b81146117d657600080fd5b50565b6000813590506117e8816117c2565b92915050565b600060208284031215611804576118036115ba565b5b6000611812848285016117d9565b91505092915050565b600082825260208201905092915050565b7f7072696365733e30000000000000000000000000000000000000000000000000600082015250565b600061186260088361181b565b915061186d8261182c565b602082019050919050565b6000602082019050818103600083015261189181611855565b9050919050565b7f706f73697469766520616d6f756e747300000000000000000000000000000000600082015250565b60006118ce60108361181b565b91506118d982611898565b602082019050919050565b600060208201905081810360008301526118fd816118c1565b9050919050565b7f4e487b7100000000000000000000000000000000000000000000000000000000600052601160045260246000fd5b600061193e826115bf565b9150611949836115bf565b9250828202611957816115bf565b9150828204841483151761196e5761196d611904565b5b5092915050565b7f4e487b7100000000000000000000000000000000000000000000000000000000600052601260045260246000fd5b60006119af826115bf565b91506119ba836115bf565b9250826119ca576119c9611975565b5b828204905092915050565b7f65786365656473206d617820626f72726f7761626c6500000000000000000000600082015250565b6000611a0b60168361181b565b9150611a16826119d5565b602082019050919050565b60006020820190508181036000830152611a3a816119fe565b9050919050565b7f6e6f7420656e6f756768206c6971756964697479000000000000000000000000600082015250565b6000611a7760148361181b565b9150611a8282611a41565b602082019050919050565b60006020820190508181036000830152611aa681611a6a565b9050919050565b6000611ab8826115bf565b91507fffffffffffffffffffffffffffffffffffffffffffffffffffffffffffffffff8203611aea57611ae9611904565b5b600182019050919050565b6000611b00826115bf565b9150611b0b836115bf565b9250828203905081811115611b2357611b22611904565b5b92915050565b6000606082019050611b3e6000830186611635565b611b4b6020830185611635565b611b586040830184611635565b949350505050565b7f696e73756666696369656e74206c697175696469747900000000000000000000600082015250565b6000611b9660168361181b565b9150611ba182611b60565b602082019050919050565b60006020820190508181036000830152611bc581611b89565b9050919050565b7f6c6f616e20636c6f736564000000000000000000000000000000000000000000600082015250565b6000611c02600b8361181b565b9150611c0d82611bcc565b602082019050919050565b60006020820190508181036000830152611c3181611bf5565b9050919050565b7f6865616c746879206c6f616e0000000000000000000000000000000000000000600082015250565b6000611c6e600c8361181b565b9150611c7982611c38565b602082019050919050565b60006020820190508181036000830152611c9d81611c61565b9050919050565b6000611caf826115bf565b9150611cba836115bf565b9250828201905080821115611cd257611cd1611904565b5b92915050565b7f6c74763c3d310000000000000000000000000000000000000000000000000000600082015250565b6000611d0e60068361181b565b9150611d1982611cd8565b602082019050919050565b60006020820190508181036000830152611d3d81611d01565b9050919050565b7f616d6f756e743e30000000000000000000000000000000000000000000000000600082015250565b6000611d7a60088361181b565b9150611d8582611d44565b602082019050919050565b60006020820190508181036000830152611da981611d6d565b9050919050565b7f6f6e6c7920626f72726f77657200000000000000000000000000000000000000600082015250565b6000611de6600d8361181b565b9150611df182611db0565b602082019050919050565b60006020820190508181036000830152611e1581611dd9565b9050919050565b6000606082019050611e316000830186611635565b611e3e6020830185611635565b611e4b604083018461176e565b949350505050565b7f4f776e61626c653a206e6577206f776e657220697320746865207a65726f206160008201527f6464726573730000000000000000000000000000000000000000000000000000602082015250565b6000611eaf60268361181b565b9150611eba82611e53565b604082019050919050565b60006020820190508181036000830152611ede81611ea2565b9050919050565b7f4f776e61626c653a2063616c6c6572206973206e6f7420746865206f776e6572600082015250565b6000611f1b60208361181b565b9150611f2682611ee5565b602082019050919050565b60006020820190508181036000830152611f4a81611f0e565b9050919050565b7f5265656e7472616e637947756172643a207265656e7472616e742063616c6c00600082015250565b6000611f87601f8361181b565b9150611f9282611f51565b602082019050919050565b60006020820190508181036000830152611fb681611f7a565b9050919050565b6000606082019050611fd26000830186611738565b611fdf6020830185611738565b611fec6040830184611635565b949350505050565b60006040820190506120096000830185611738565b6120166020830184611635565b9392505050565b61202681611762565b811461203157600080fd5b50565b6000815190506120438161201d565b92915050565b60006020828403121561205f5761205e6115ba565b5b600061206d84828501612034565b91505092915050565b7f5361666545524332303a204552433230206f7065726174696f6e20646964206e60008201527f6f74207375636365656400000000000000000000000000000000000000000000602082015250565b60006120d2602a8361181b565b91506120dd82612076565b604082019050919050565b60006020820190508181036000830152612101816120c5565b9050919050565b7f416464726573733a20696e73756666696369656e742062616c616e636520666f60008201527f722063616c6c0000000000000000000000000000000000000000000000000000602082015250565b600061216460268361181b565b915061216f82612108565b604082019050919050565b6000602082019050818103600083015261219381612157565b9050919050565b600081519050919050565b600081905092915050565b60005b838110156121ce5780820151818401526020810190506121b3565b60008484015250505050565b60006121e58261219a565b6121ef81856121a5565b93506121ff8185602086016121b0565b80840191505092915050565b600061221782846121da565b915081905092915050565b7f416464726573733a2063616c6c20746f206e6f6e2d636f6e7472616374000000600082015250565b6000612258601d8361181b565b915061226382612222565b602082019050919050565b600060208201905081810360008301526122878161224b565b9050919050565b600081519050919050565b6000601f19601f8301169050919050565b60006122b58261228e565b6122bf818561181b565b93506122cf8185602086016121b0565b6122d881612299565b840191505092915050565b600060208201905081810360008301526122fd81846122aa565b90509291505056fea26469706673582212205a54761e05b95d9a3cf2882e77af9ca3e7f6936161317a34a584dac26799445864736f6c63430008130033",
  "linkReferences": {},
  "deployedLinkReferences": {}
}